:020000040800F2
:10000000D80B0020E1050008B5030008B70300087D
:10001000BB030008BF030008C30300080000000082
:10002000000000000000000000000000C7030008FE
:10003000C903000800000000CB030008CD0300083E
:10004000FB050008FB050008FB050008FB05000890
:10005000FB050008FB050008FB050008FB05000880
:10006000FB050008FB050008FB050008FB05000870
:10007000FB050008FB050008FB050008FB05000860
:10008000FB050008FB050008FB050008FB05000850
:10009000FB050008FB050008FB050008FB05000840
:1000A000FB050008FB050008FB050008FB05000830
:1000B000FB05000873030008FB050008FB050008AA
:1000C000FB050008FB050008FB050008FB05000810
:1000D000FB0500082D270008FB050008FB050008AC
:1000E000FB050008FB050008FB050008FB050008F0
:1000F000FB050008FB050008FB050008FB050008E0
:10010000FB050008FB050008FB050008FB050008CF
:10011000FB050008FB050008FB050008FB050008BF
:10012000FB050008FB050008FB050008FB050008AF
:10013000FB050008FB050008FB050008FB0500089F
:10014000FB050008FB050008FB050008FB0500088F
:10015000FB050008FB050008FB050008FB0500087F
:10016000FB050008FB050008FB050008FB0500086F
:10017000FB050008FB050008FB050008FB0500085F
:10018000FB050008FB05000800F002F800F03CF851
:100190000AA090E8000C82448344AAF10107DA45E2
:1001A00001D100F031F8AFF2090EBAE80F0013F0F8
:1001B000010F18BFFB1A43F00103184798640000B1
:1001C000B8640000103A24BF78C878C1FAD8520742
:1001D00024BF30C830C144BF04680C6070470000C1
:1001E0000023002400250026103A28BF78C1FBD840
:1001F000520728BF30C148BF0B6070471FB503F0DE
:10020000FBF91FBD10B510BD03F0C7F91146FFF78C
:10021000F5FF00F009F803F0E5F903B4FFF7F2FF8A
:1002200003BC02F023FA0000A82002F09DF902F0BE
:10023000C3FA03F08DF803F0EBF802F0B7FB03F01C
:1002400000F995E000205549086030E002E0012007
:1002500002F0A4F9524800680028F8D1012002F009
:100260009DF903F00AF900204E49086014E04E4859
:100270004C49096850F821004C494A4A126831F843
:10028000121008444849474A126841F8220045487C
:100290000068401C43490860424800680828E6DBC3
:1002A00003F0CFF83D480068401C3C4908603B48DB
:1002B00000686428CADB00203A49086011E03A4827
:1002C0003849096850F82100642190FBF1F0364963
:1002D000344A126841F8220032480068401C314913
:1002E0000860304800680828E9DB2F4800210268D0
:1002F000084602F0F5FD2C4801214268002002F07A
:10030000EFFD294802218268002002F0E9FD26481D
:100310000321C268002002F0E3FD234800210269A6
:100320003F2002F0DDFD2048012142693F2002F01C
:10033000D7FD1D48022182693F2002F0D1FD1A48F5
:100340000321C2693F2002F0CBFD0020154908605F
:100350000AE000211448134A126840F8221011489C
:100360000068401C0F4908600E4800680828F0DB50
:1003700068E710B501210E4801F0DFFD48B10848DB
:100380006430006808B9012000E0002004496431AD
:1003900008600121064801F0E1FD10BD00000020C9
:1003A0003C824042040000203C0000202405002044
:1003B00000040040704700BFFEE700BFFEE700BF3B
:1003C000FEE700BFFEE770477047704770470000C8
:1003D0000CB50020019000907648006840F4803011
:1003E0007449086000BF7348006800F40030009052
:1003F0000198401C0190009818B90198B0F5A04FE1
:10040000F1D16C48006800F4003010B10120009078
:1004100001E0002000900098012846D16548403056
:10042000006840F0805063494031086062480068CD
:1004300040F44040604908605E48083000685D490B
:10044000083108600846006840F40040086008462B
:10045000006840F4A05008605848091F0860081F51
:10046000006840F08070091F086000BF51480068B4
:1004700000F000700028F9D040F205705049086083
:100480004C480830006820F003004A4908310860F1
:100490000846006840F00200086000BF4548083088
:1004A000006800F00C000828F8D10CBD10B54548D4
:1004B000006840F47000434908603E48006840F01E
:1004C00001003C49086000203A4908310860394879
:1004D00000683D490840374908603C48091D0860EC
:1004E000081F006820F48020091F0860002031499F
:1004F0000C310860FFF76CFF4FF000603149803924
:10050000086010BD70B500200022022300240221E3
:10051000284D08352D6805F00C0020B1042806D0C0
:10052000082834D107E02A4D2A4E356033E02A4DA1
:10053000284E35602FE01F4D2D1D2D68C5F38054CA
:100540001C4D2D1D2D6805F03F0154B1224DB5FB0A
:10055000F1F5184E361D3668C6F3881605FB06F20F
:1005600009E01B4DB5FBF1F5124E361D3668C6F39A
:10057000881605FB06F20F4D2D1D2D68C5F30145AC
:100580006D1C6B00B2FBF3F5124E356003E0104DAD
:10059000104E356000BF00BF064D08352D68C5F30D
:1005A00003150E4E705D0B4D2D68C540094E35602C
:1005B00070BD000000380240007000400854400741
:1005C000003C024088ED00E0FFFFF6FE1030002402
:1005D0000024F4000C00002000127A00100000201B
:1005E0000948804709480047FEE7FEE7FEE7FEE7C7
:1005F000FEE7FEE7FEE7FEE7FEE7FEE70448054903
:10060000054A064B70470000AD0400088901000848
:10061000D8050020D80B0020D8070020D8070020DC
:1006200032490143324A1160704770B500210023FE
:100630000F22C4781CB32E4C246804F4E064C4F583
:10064000E064C4F30721C1F10404E3B20A41447831
:100650009C40E1B28478144021430C07210E254CC4
:1006600005786155047804F01F050124AC40057835
:100670006D11AD0005F1E025C5F8004109E00478F1
:1006800004F01F050124AC401B4D0678761145F897
:10069000264070BD194A0A400243154B1B1F1A60C1
:1006A000704739B1124A121D12680243104B1B1DCC
:1006B0001A6006E00E4A121D126882430C4B1B1D85
:1006C0001A607047042808D14FF0E021096941F011
:1006D00004014FF0E022116107E04FF0E0210969C9
:1006E00021F004014FF0E022116170470000FA058B
:1006F0000CED00E000E400E080E100E080FFFF1F7F
:1007000010B504469848844208D10121084600F0FB
:1007100086FB0021012000F082FB76E093488442B2
:1007200008D10121022000F07AFB0021022000F014
:1007300076FB6AE08E48844208D10121042000F053
:100740006EFB0021042000F06AFB5EE089488442D1
:1007500008D10121082000F062FB0021082000F0F0
:100760005EFB52E08448844208D10121102000F051
:1007700056FB0021102000F052FB46E07F488442E7
:1007800008D10121202000F04AFB0021202000F0A8
:1007900046FB3AE07A48844208D10121402000F02B
:1007A0003EFB0021402000F03AFB2EE075488442D9
:1007B00008D10121802000F032FB0021802000F0D0
:1007C0002EFB22E07048844208D10121801500F000
:1007D00026FB0021A01500F022FB16E06B488442A6
:1007E00008D10121401500F01AFB0021601500F02E
:1007F00016FB0AE06648844207D10121001500F08B
:100800000EFB0021201500F00AFB10BDF0B50A46D2
:1008100000210023002400BF3DE0012505FA01F37B
:10082000156805EA03049C4234D105684F0003268D
:10083000BE40B543056015794E00B54006683543A6
:1008400005601579012D02D01579022D16D1856824
:100850004F000326BE40B543856055794E00B54034
:10086000866835438560456801268E40B5434560FE
:10087000456896798E40B6B235434560C5684F00ED
:100880000326BE40B543C560D5794E00B540C66865
:100890003543C560491C1029BFD3F0BD4FF6FF7129
:1008A00001600021017141718171C171704708B50A
:1008B0004FF480320092009A0A430092009AC2617B
:1008C000C161009AC261C2690092C269009208BD0A
:1008D0000246002013690B400BB1012000E000200C
:1008E00070470146086980B270470246002053698C
:1008F0000B400BB1012000E0002070470146486921
:1009000080B2704701837047418370470AB1018309
:1009100000E0418370474161704742694A4042614B
:100920007047F0B5002300244D07ED0E02FA05F3E1
:10093000CE1000F1200555F826504E07F70E0F2671
:10094000BE40B543CF1000F1200646F82750CE1028
:1009500000F1200555F8265045EA0304CE1000F1B9
:10096000200545F82640F0BD00000240000402408A
:1009700000080240000C0240001002400014024037
:1009800000180240001C02400020024000240240E7
:1009900000280240F948006840F00100F74908606B
:1009A0000020F64908310860F4480068F44908401E
:1009B000F2490860F348091D0860F348EF498431A3
:1009C0000860F0481038091D0860EC48006820F401
:1009D0008020EA4908600020E8490C310860E749B6
:1009E0008C31086070470021E44A921C1170114656
:1009F0000870704710B501460022002300204A11FC
:100A0000012A02D1DD4C236808E0022A03D1DB4C25
:100A10007034236802E0D94C7434236801F01F025B
:100A2000012494401C400CB1012000E0002010BDC6
:100A300038B5002000900024002500BF3120FFF7CA
:100A4000D9FF05460098401C00900098B0F5A04FD3
:100A500001D0002DF2D03120FFF7CCFF08B10124E6
:100A600000E00024204638BD01460020C34A10683B
:100A700020F0F80040EAC10010607047C3490860E8
:100A800070470021BD4A703211701170012802D0E8
:100A900004280AD104E00121B84A7032117005E03F
:100AA0000521B64A7032117000E000BF00BF7047E8
:100AB000B7490860704770B5049C41EA8215012669
:100AC000C6EB530645EA0645054345EA0465AB4EC9
:100AD000361D356070BDAD4908667047820142EA37
:100AE0000172A64B84331A607047A8498866704724
:100AF00010B5830143EA016343EA02739F4C8834D3
:100B0000236010BDA14908677047A049C8647047B9
:100B100002460020994B0833186820F0EC6042EA46
:100B200001031843954B08331860704702460020B4
:100B3000924B0833186820F0784042EA01031843CA
:100B40008E4B083318607047014600208B4A0832EC
:100B5000106820F003000843106070478748083091
:100B6000006800F00C00704701460020834A0832FC
:100B7000106820F0F0000843106070470146002024
:100B80007E4A0832106820F4E05008431060704735
:100B900001460020794A0832106820F4604040EA9B
:100BA000C10010607047F0B500210022002402252A
:100BB00000260223714F08373F6807F00C0121B16E
:100BC000042905D0082937D105E0724F076036E0C7
:100BD000714F076033E0694F3F1D3F68C7F3805690
:100BE000664F3F1D3F6807F03F036EB16A4FB7FB8A
:100BF000F3F7DFF888C10CF1040CDCF800C0CCF38B
:100C0000881C07FB0CF40CE0624FB7FBF3F7DFF82E
:100C10006CC10CF1040CDCF800C0CCF3881C07FBA1
:100C20000CF4564F3F1D3F68C7F301477F1C7D0002
:100C3000B4FBF5F7076002E0564F076000BF00BF46
:100C40004E4F08373F6807F0F0010909534F7A5CAF
:100C50000768D7404760494F08373F6807F4E051BD
:100C6000890A4E4F7A5C4768D7408760434F083700
:100C70003F6807F46041490B484F7A5C4768D740AA
:100C8000C760F0BD002100F44072B2F5407F0AD188
:100C90003A4A0832116821F4F811414A02401143DE
:100CA000364A08321160354A70321268C0F30B03BD
:100CB0001A43324B70331A60704735494439086023
:100CC00070473349403908607047364908607047BB
:100CD00001460020294A8C32106820F01F004A1E6D
:100CE0001043264A8C321060704701460020234A88
:100CF0008C32106820F4F8504A1E40EA02201F4A45
:100D00008C3210607047014600201C4A8C321068FB
:100D100020F4401008431060704701460020174A35
:100D20008C32106820F44000084310607047014680
:100D30000020124A8C32106820F4403008431060C2
:100D4000704719490860704739B10C4A303212684F
:100D500002430A4B30331A6006E0084A3032126808
:100D60008243064B30331A607047F9B1034A34327C
:100D700012680243014B34331A601CE00038024011
:100D8000FFFFF6EA10300024003000200000474248
:100D9000800E47420024F40000127A002000002058
:100DA000FFFCFF0F5C014742E01147428F4A126887
:100DB00082438E4B1A60704739B18C4A121D1268FB
:100DC00002438A4B1B1D1A6006E0884A121D1268F6
:100DD0008243864B1B1D1A60704739B1834A0C321F
:100DE00012680243814B0C331A6006E07F4A0C32D2
:100DF000126882437D4B0C331A60704739B17B4ACD
:100E0000103212680243794B10331A6006E0774AB9
:100E1000103212688243754B10331A60704739B133
:100E2000724A243A12680243704B243B1A6006E06F
:100E30006E4A243A126882436C4B243B1A60704716
:100E400039B16A4A203A12680243684B203B1A6063
:100E500006E0664A203A12688243644B203B1A60DF
:100E6000704739B1614A1C3A126802435F4B1C3B20
:100E70001A6006E05D4A1C3A126882435B4B1C3BD9
:100E80001A60704739B1594A143A12680243574BF5
:100E9000143B1A6006E0554A143A12688243534BD9
:100EA000143B1A60704739B1504A103A1268024335
:100EB0004E4B103B1A6006E04C4A103A12688243CF
:100EC0004A4B103B1A60704739B1484A1C321268CD
:100ED0000243464B1C331A6006E0444A1C32126837
:100EE0008243424B1C331A60704739B13F4A20326B
:100EF000126802433D4B20331A6006E03B4A203221
:100F000012688243394B20331A60704739B1374A2F
:100F1000243212680243354B24331A6006E0334A08
:100F2000243212688243314B24331A60704739B13E
:100F30002E4A2C32126802432C4B2C331A6006E0E6
:100F40002A4A2C3212688243284B2C331A6070478D
:100F500039B1264A303212680243244B30331A60CA
:100F600006E0224A303212688243204B30331A6046
:100F70007047012808D11D493C31096841F008013A
:100F80001A4A3C32116007E018493C31096821F0E7
:100F90000801164A3C321160704739B1134A273AAA
:100FA00012780243114B273B1A7006E00F4A273A8A
:100FB000127882430D4B273B1A7070470B48403024
:100FC000006840F080700949403108607047014670
:100FD0000020064A283A12680A400AB1012000E0BF
:100FE00000207047014926390870704734380240A4
:100FF00010B50446FB48844208D101218014FFF754
:1010000052FF0021A014FFF74EFF3CE0F648844257
:1010100008D101210014FFF735FF00212014FFF74C
:1010200031FF30E0F148844208D10121C013FFF7BD
:1010300029FF0021E013FFF725FF24E0EC4884425C
:1010400008D101214014FFF72EFF00216014FFF7A3
:101050002AFF18E0E748844209D101210805FFF77B
:1010600022FF00214FF48010FFF71DFF0BE0E24844
:10107000844208D101214805FFF715FF00214FF4F4
:101080000010FFF710FF10BD10B50022028802F417
:1010900041520B884C8823438C882343CC882343BC
:1010A0000C8923434C8923438C892343CC892343D4
:1010B0001A430280838B4FF2FF74234083830B8A91
:1010C000038210BD2DE9F04F0025022300244FF0CC
:1010D000010900220026002794469046B0F81CA083
:1010E0004FF2400B0AEA0B0AA0F81CA04FF0020ACC
:1010F000A0F820A0858BD1F808A0BAF1020F01D189
:1011000000BF82E0B1F804A0BAF1000F02D14FF0A5
:10111000010901E04FF00209DFF8E0A2DAF800A0CF
:101120000AF4000ABAF1000F09D0DFF8D0A2DAF809
:1011300000A02AF4000ADFF8C4B2CBF800A0DFF860
:10114000BCA20AF17C0ADAF800A0CAF3881CDFF816
:10115000ACA20AF17C0ADAF800A0CAF30278DFF840
:101160009CA2AAF1040ADAF800A00AF03F07DFF80F
:101170008CA2AAF1040ADAF800A00AF4800ABAF5EF
:10118000800F08D1DFF878A2BAFBF7FA0AFB0CFA55
:10119000BAFBF8F607E0DFF86CA2BAFBF7FA0AFB35
:1011A0000CFABAFBF8F6B1F806A0BAF5007F0ED13A
:1011B0004FEA162A0AEB8A0A4FEA4A0AD1F808B01F
:1011C000BAFBFBFA0AF1050A1FFA8AF20FE04FEAAE
:1011D000491AB6FBFAFA0AEB8A0A4FEA4A0AD1F828
:1011E00008B0BAFBFBFA0AF1050A1FFA8AF24FF0BF
:1011F0000A0AB2FBFAF202F00104A2EB040ACAF3F3
:101200004F034FF6FF7A0AEA0424022B01DBFF2B7F
:1012100001DD02230024B1F806A04AEA040A4AEAE2
:10122000030AA0F820A0B1F804A0B1F80CB04AEA73
:101230000B0AB1F802B04AEA0B0AB1F800B04AEA68
:101240000B0A4AF4006A4AEA05058583BDE8F08F77
:101250000021018041808180C180018141818181A3
:10126000C181072101827047002101804180818076
:10127000C1800221816000218181704721B10288F3
:1012800042F04002028004E002884FF6BF731A4029
:101290000280704721B1828B42F48062828304E035
:1012A000828B4FF6FF331A408283704702884FF2D9
:1012B000FF731A40028002880A4302807047B1F52A
:1012C000804F04D1028842F48042028004E0028808
:1012D0004BF6FF731A40028070474FF6FF6291424F
:1012E00004D0028842F48072028004E002884FF643
:1012F000FF631A400280704721B1828842F00402E5
:10130000828004E082884FF6FB731A408280704727
:1013100021B1828842F01002828004E082884FF678
:10132000EF731A408280704730B500220023848B0F
:101330004FF240052C40848302240484828B0C8865
:10134000B4F5007F01D00C8814B94FF4807308E025
:101350000C88B4F5407F03D00C88B4F5807F00D1B1
:1013600000238C888D892C434D882C431C4344F4E6
:1013700000642243828330BD0146888970478181A1
:10138000704721B1028842F40052028004E00288D2
:101390004DF6FF731A4002807047018841F4805176
:1013A0000180704702460020012901D0108B00E027
:1013B000908A70470146088A70471AB183880B43A8
:1013C000838002E083888B438380704730B500249C
:1013D00000230C110125A540ABB2AAB185881D439D
:1013E000858014E00030014000380040003C00409F
:1013F00000340140005001400054014008380240D0
:1014000000127A000024F40085889D43858030BD59
:101410000246002013890B400BB1012000E00020A0
:101420007047CA4302817047F0B50246002000248D
:101430000023002501F00F070126BE40B4B20B11B6
:1014400001269E40B3B2968806EA03051689264017
:1014500016B10DB1012000E00020F0BD10B5002252
:1014600001F00F040123A3409AB2D343038110BDBE
:1014700010B50446FE48844208D101210846FFF712
:1014800012FD00210120FFF70EFD9DE0B4F1804F19
:1014900008D101210846FFF7F5FC00210120FFF7E4
:1014A000F1FC91E0F348844208D101210220FFF7CA
:1014B000E9FC00210220FFF7E5FC85E0EE488442CC
:1014C00008D101210420FFF7DDFC00210420FFF7F3
:1014D000D9FC79E0E948844208D101210820FFF7CE
:1014E000D1FC00210820FFF7CDFC6DE0E4488442E8
:1014F00008D101211020FFF7C5FC00211020FFF7C3
:10150000C1FC61E0DF48844208D101212020FFF7BF
:10151000B9FC00212020FFF7B5FC55E0DA488442F1
:1015200008D101210220FFF7BEFC00210220FFF7B5
:10153000BAFC49E0D548844209D101210804FFF7EB
:10154000B2FC00214FF48030FFF7ADFC3CE0D04806
:10155000844209D101214804FFF7A5FC00214FF482
:101560000030FFF7A0FC2FE0CA48844209D10121D6
:101570008804FFF798FC00214FF48020FFF793FCCC
:1015800022E0C548844208D101214020FFF77AFCBF
:1015900000214020FFF776FC16E0C048844208D1C5
:1015A00001218020FFF76EFC00218020FFF76AFCFC
:1015B0000AE0BB48844207D101218015FFF762FC95
:1015C0000021A015FFF75EFC10BD00220288A84B89
:1015D00098420ED0AC4B98420BD0B0F1804F08D05F
:1015E000A44B984205D0A44B984202D0A34B9842FA
:1015F00004D14FF68F731A404B881A43A04B984280
:1016000007D0A04B984204D04FF6FF431A400B89F5
:101610001A4302804B68C3620B880385944B98423F
:1016200002D0994B984201D18B7A038601238382A1
:1016300070474FF0FF3141600021018001814180FE
:10164000817270470185828270470A4600210188B5
:101650004FF68F7319401143018070474162704704
:10166000C16270470146486A70470146088D70475D
:1016700021B1028842F00202028004E002884FF6A3
:10168000FD731A400280704721B1028842F00402C3
:10169000028004E002884FF6FB731A400280704714
:1016A00021B1028842F08002028004E002884FF6F5
:1016B0007F731A400280704702884FF6F7731A4012
:1016C000028002880A430280704702884FF6FF4377
:1016D0001A40028002880A430280704721B10288C2
:1016E00042F00102028004E002884FF6FE731A40C5
:1016F0000280704770B5002400220023058C4FF64D
:10170000FE7635400584028C8388048B4FF68F75F6
:101710002C40B51E2C400D882C43751E2A408D8907
:101720002A434D882A43524DA84202D0564DA84222
:1017300013D14FF6F7752A40CD892A434FF6FB7532
:101740002A408D882A434FF6FF652B404FF6FF5500
:101750002B400D8A2B434D8A2B43838004838D6855
:101760004563028470BD70B5002400220023058CFF
:101770004FF6EF7635400584028C8388048B48F65B
:10178000FF752C404FF6FF452C400D884FF6FF7635
:1017900006EA05252C434FF6DF752A408D8906EAB7
:1017A00005152A434D8806EA05152A43304DA842FF
:1017B00002D0354DA8421DD14FF67F752A40CD8904
:1017C0004FF6FF7606EA05152A434FF6BF752A4005
:1017D0008D8806EA05152A434FF6FF352B404FF258
:1017E000FF752B400D8A06EA85052B434D8A06EAD4
:1017F00085052B43838004838D688563028470BDD7
:1018000070B5002400220023058C4FF6FF6635409A
:101810000584028C8388848B4FF68F752C404FF69D
:10182000FC752C400D882C434FF6FF552A408D89BE
:101830004FF6FF7606EA05252A434D8806EA052578
:101840002A430B4DA84202D00F4DA84238D14FF287
:10185000FF752A40CD894FF6FF7606EA05252A4313
:101860004FF6FF352A408D8806EA05252A4319E000
:10187000000001400004004000080040000C00404F
:1018800000100040001400400004014000400140EE
:10189000004401400048014000180040001C004086
:1018A000002000404EF6FF752B404DF6FF752B4093
:1018B0000D8A06EA05152B434D8A06EA05152B43CA
:1018C000838084838D68C563028470BD70B50022F7
:1018D00000230024058C4EF6FF7635400584038CEA
:1018E0008488828B48F6FF752A404FF6FF452A40D0
:1018F0000D884FF6FF7606EA05252A434DF6FF755B
:101900002B408D8906EA05352B434D8806EA0535BF
:101910002B43FE4DA84202D0FD4DA84208D14BF604
:10192000FF752C400D8A4FF6FF7606EA85152C438D
:10193000848082838D680564038470BD00210180EA
:101940004180818081608181C181018241827047B3
:1019500070B50346002000241846183001258D403C
:10196000ACB21D8CA5431D8409B108290AD100EB36
:10197000610005684FF68F763540056005681543B0
:1019800005600FE00D1FC5F34E052844056848F6B5
:10199000FF763540056005684FF6FF7606EA0226B9
:1019A0003543056070BD4163704781637047C16313
:1019B0007047016470470A460021018B4FF68F7310
:1019C00019401143018370470A460021018B48F6F4
:1019D000FF7319404FF6FF7303EA02231943018393
:1019E00070470A460021818B4FF68F7319401143CF
:1019F000818370470A460021818B48F6FF731940A6
:101A00004FF6FF7303EA02231943818370470A46A6
:101A10000021018B4FF6F773194011430183704782
:101A20000A460021018B4FF2FF7319404FF6FF73F6
:101A300003EA02231943018370470A460021818B80
:101A40004FF6F77319401143818370470A4600210E
:101A5000818B4FF2FF7319404FF6FF7303EA0223A5
:101A60001943818370470A460021018B4FF6FB73AF
:101A700019401143018370470A460021018B4FF63C
:101A8000FF3319404FF6FF7303EA02231943018322
:101A900070470A460021818B4FF6FB7319401143B2
:101AA000818370470A460021818B4FF6FF3319402E
:101AB0004FF6FF7303EA02231943818370470A46F6
:101AC0000021018B4FF67F7319401143018370474A
:101AD0000A460021018BC1F30E014FF6FF7303EAA2
:101AE00002231943018370470A460021818B4FF678
:101AF0007F7319401143818370470A460021818B0F
:101B0000C1F30E014FF6FF7303EA022319438183E9
:101B100070470A460021018C4FF6FD7319401143AE
:101B2000018470470A460021018C4FF6F773194073
:101B30001143018470470A460021018C4FF6DF7380
:101B400019404FF6FF7303EA0213194301847047EB
:101B50000A460021018C4FF67F7319404FF6FF7340
:101B600003EA02131943018470470A460021018CDD
:101B70004FF6FF5319404FF6FF7303EA0223194350
:101B8000018470470A460021018C4FF2FF7319400F
:101B90004FF6FF7303EA02231943018470470A4694
:101BA0000021018C4DF6FF7319404FF6FF7303EAD5
:101BB000023319430184704730B5002301248C405F
:101BC000A3B2048C9C430484048C02FA01F5ADB2E8
:101BD0002C43048430BD30B5002304248C40A3B2D0
:101BE000048C9C430484048C02FA01F5ADB22C43AE
:101BF000048430BD828B4FF2FF331A408283828B84
:101C00004FF6FF7303EA01231A4382837047F0B54E
:101C10000C461546002100220026078C4EF6FF7C5C
:101C200007EA0C070784818B028C4FF6FF7707EADF
:101C3000043640F6FF4739404FF6FF7707EA05279D
:101C400039434FF6FF7707EA0337394345F6FF7705
:101C50003A4046F480573A4381830284F0BD828B38
:101C60004FF6F3731A408283828B0A438283704754
:101C7000F0B50C461546002100220026078C4FF6D1
:101C8000FF6C07EA0C070784818B028C4FF6FF7705
:101C900007EA04264FF60C7739404FF6FF7707EA3C
:101CA00003172F4339434FF2FF573A4046F48077EA
:101CB0003A4381830284F0BD028B4FF2FF331A4016
:101CC0000283028B4FF6FF7303EA01231A43028358
:101CD0007047F0B50C461546002100220026078CFF
:101CE0004FF6EF7C07EA0C070784018B028C4FF656
:101CF000FF7707EA041640F6FF4739404FF6FF77B3
:101D000007EA033739434FF6FF7703E0000001404D
:101D10000004014007EA052739434FF65F773A4050
:101D200046F010073A4301830284F0BD028B4FF660
:101D3000F3731A400283028B0A4302837047F0B5A3
:101D40000C46154600210022068C4FF6FE773E40D9
:101D50000684018B028C4FF60C7631407E1C06EA1D
:101D600003162E4331434FF6F576324044F0010618
:101D7000324301830284F0BD70B505460C462088CD
:101D800050B92389A28861882846FFF7D8FFE188E7
:101D90002846FFF7CBFF25E0208804280AD12389B5
:101DA000A28861882846FFF794FFE1882846FFF75C
:101DB00083FF17E0208808280AD12389A288618838
:101DC0002846FFF755FFE1882846FFF748FF09E05E
:101DD0002389A28861882846FFF719FFE1882846F1
:101DE000FFF708FF70BD0021018041800121818043
:101DF0000021C180018170472DE9F04105460C4664
:101E000000260127608808B9022600E00026A08885
:101E1000012801D1022700E001272088A0B92389E9
:101E2000A28861882846FFF78AFFE1882846FFF7E5
:101E30007DFF23893A4631462846FFF74AFFE1886D
:101E40002846FFF739FF13E02389A28861882846D6
:101E5000FFF73FFFE1882846FFF72EFF23893A4628
:101E600031462846FFF76BFFE1882846FFF75EFF03
:101E7000BDE8F0810146486B70470146886B7047AA
:101E80000146C86B70470146086C70470A884B884A
:101E90001A438B881A43CB881A430B891A434B8900
:101EA0001A438B891A43A0F844207047002101800F
:101EB00041808180C180018141818181704731B140
:101EC000B0F8442042F40042A0F8442005E0B0F805
:101ED0004420C2F30E02A0F84420704721B182884A
:101EE00042F00402828004E082884FF6FB731A40BD
:101EF0008280704721B1828842F00102828004E032
:101F000082884FF6FE731A40828070471AB1838927
:101F10000B43838102E083898B43838170478182F5
:101F2000704702460020138A0B400BB1012000E0ED
:101F300000207047CA430282704730B50246002035
:101F400000230024158A05EA0103958905EA0104A6
:101F500013B10CB1012000E0002030BDCA43028261
:101F6000704741EA0203A0F8483070471AB18389EC
:101F70000B43838102E083898B438381704721B1C6
:101F8000828842F00802828004E082884FF6F7736C
:101F90001A408280704701894FF6F8721140018122
:101FA00070470A46002101894FF68F73194011438B
:101FB0000181704730B504460D4629462046FFF79B
:101FC000F0FF208940F00700208130BD2DE9F0416D
:101FD00004460D4616461F46602D06D13B4601229B
:101FE00031462046FFF775FE05E03B4601223146AB
:101FF0002046FFF7A4FE29462046FFF7D2FF20899E
:1020000040F007002081BDE8F08130B50C4600218A
:102010000189C9B24FF6FF7505EA0325154325432B
:102020002943018130BD2DE9F04105460E46174692
:102030009846002443463A4631462846FFF7E5FFD6
:102040002C894FF6F870044044F007044FF68F7067
:10205000044044F070042C81BDE8F081F0B50446E2
:102060000D4616461F463B46324629462046FFF798
:10207000CCFF208940F480402081F0BD82884FF65B
:102080008F731A40828082880A4382807047028957
:102090004FF6F8731A40028102890A4302817047A1
:1020A00002894FF67F731A40028102890A43028136
:1020B0007047F0B50C4615461E460021002200234D
:1020C0000189028B038C4FF6F877394021434FF694
:1020D000FC473A4040F201173A434FF6DD773B4068
:1020E0004FF6FF7707EA06172F433B430181028330
:1020F0000384F0BD21B1828842F08002828004E036
:1021000082884FF67F731A4082807047A0F8501083
:102110007047000010B50446FA48844208D10121F6
:102120001020FEF7C0FE00211020FEF7BCFE57E095
:10213000F548844209D101214804FEF7A3FE00219D
:102140004FF40030FEF79EFE4AE0F048844209D189
:1021500001218804FEF796FE00214FF48020FEF74F
:1021600091FE3DE0EA48844209D10121C804FEF70E
:1021700089FE00214FF40020FEF784FE30E0E548A0
:10218000844209D101210805FEF77CFE00214FF4AD
:102190008010FEF777FE23E0DF48844208D101215A
:1021A0002020FEF780FE00212020FEF77CFE17E0B5
:1021B000DA48844209D101218807FEF763FE002135
:1021C0004FF08040FEF75EFE0AE0D548844207D11A
:1021D00001214005FEF756FE00216005FEF752FE84
:1021E00010BD2DE9FF4705460E460024A14600BF5D
:1021F000A046B08900B100BF2C8A24F44054F08876
:1022000004432C82AC8941F20C608443B08831894C
:102210000843718908430443AC81AC8A24F44074B8
:10222000B0890443AC826846FEF7BDFCB5488542E0
:1022300002D0B948854202D1DDF80C9001E0DDF80A
:102240000890A88900F4004040B109EBC90000EBF8
:10225000091031684900B0FBF1F707E009EBC9004C
:1022600000EB091031688900B0FBF1F76420B7FB7F
:10227000F0F004012009642101FB1078A88900F422
:10228000004040B1322000EBC800B0FBF1F000F09C
:102290000700044308E0322000EB08106421B0FB83
:1022A000F1F000F00F0004432C81BDE8FF874FF4EC
:1022B0001651016000218180C18001810C21418182
:1022C00000218181704710B502460020108A20F459
:1022D00070600B884C8823438C882343CC8823432D
:1022E0001843108210BD0021018041808180C1808F
:1022F000704721B1828942F40052828104E08289D0
:102300004DF6FF731A4082817047028B02F47F42C0
:102310000283028B0A430283704721B1828942F40F
:102320000042828103E08289C2F30E0282817047FB
:1023300021B1828A42F40062828204E0828A4FF2F2
:10234000FF731A4082827047C1F30802828070478F
:1023500001468888C0F308007047028A4FF6F07380
:102360001A400282028A0A430282704721B182899E
:1023700042F00202828104E082894FF6FD731A4026
:102380008281704782894FF2FF731A40828182896D
:102390000A4382817047028A4FF6DF731A40028235
:1023A000028A0A430282704721B1028A42F48042C3
:1023B000028204E0028A4BF6FF731A4002827047E1
:1023C000818941F001018181704721B1828A42F007
:1023D0000802828204E0828A4FF6F7731A408282F2
:1023E0007047028BD2B20283028B42EA012202833F
:1023F000704721B1828A42F02002828204E0828A00
:102400004FF6DF731A408282704721B1828A42F010
:102410001002828204E0828A4FF6EF731A408282B1
:102420007047828A4FF6FB731A408282828A0A437F
:102430008282704721B1828A42F00202828204E0E5
:10244000828A4FF6FD731A40828270471AB1838ADE
:102450000B43838202E0838A8B4383827047F0B50B
:102460000346002400260025002040F66A17B942E2
:1024700000D100BF1846C1F3421401F01F06012726
:1024800007FA06F5012C01D10C3004E0022C01D131
:10249000103000E014301AB107682F43076002E0E3
:1024A0000768AF430760F0BD02460020B1F5007F2A
:1024B00000D100BF13880B400BB1012000E00020C9
:1024C000704701F40072B2F5007F00D100BFCA432B
:1024D0000280704770B502460024002300250020CA
:1024E00040F66A16B14200D100BFC1F3421501F0B7
:1024F0001F03012606FA03F3012D13D196893340F9
:1025000017E0000000100140004400400048004077
:10251000004C004000500040001401400078004092
:10252000007C0040022D02D1168A334001E0968AD9
:1025300033400C12012606FA04F41688344013B115
:102540000CB1012000E0002070BD10B50022002376
:1025500040F66A14A14200D100BF0A12012494403F
:10256000A3B2DC43048010BD10B504466FF0040034
:10257000FEF7A8F8E11704EB5171C1F3C701394A1E
:1025800011701046007800EB4001C1EBC0104FF60F
:10259000FF7101EAC0003449088010BD0146314A8C
:1025A00012784A434FF0E0235A6100229A611A469A
:1025B000126942F001021A6100BF4FF0E022106977
:1025C00000F001021AB100F48032002AF5D04FF079
:1025D000E022126922F001024FF0E0231A6100228A
:1025E0009A6170470146204A12884A434FF0E0231F
:1025F0005A6100229A611A46126942F001021A6178
:1026000000BF4FF0E022106900F001021AB100F49F
:102610008032002AF5D04FF0E022126922F0010248
:102620004FF0E0231A6100229A61704770B50446AA
:102630004FF4077094FBF0F0C6B24FF4077094FBB0
:10264000F0F100FB114085B205E04FF40770FFF791
:10265000C9FF701EC6B2002EF7D115B12846FFF78C
:10266000C1FF70BD3000002032000020014600BFD5
:10267000704700BF4C4A128802F04002002AF9D08D
:10268000C2B2494B9A80704710B588B00446012108
:102690000846FEF759FB01211020FEF7AFFB072289
:1026A00009214248FEF73DF907220A213F48FEF77B
:1026B00038F94FF4C060069002208DF81C008DF8A8
:1026C0001D0000208DF81E0001208DF81F0006A9B6
:1026D0003648FEF79BF802940020ADF80C00ADF8E8
:1026E0000E00ADF81000ADF814000C20ADF812008B
:1026F00002A92D48FFF775FD01212B48FFF7F9FDD1
:10270000012240F225512848FFF7A9FE25208DF827
:10271000040003208DF805008DF8060001208DF8D7
:10272000070001A8FDF781FF08B010BD10B540F209
:1027300025511D48FFF7CEFE10B31B48FFF708FEDA
:10274000C4B21B48008800F40040C8B9184800888B
:1027500000F4804060B10A2C03D0002014490880A6
:1027600020E01348008840F400401149088019E037
:102770000D2C06D10E48008840F480400C4908809A
:1027800010E00B480088C0F30D000A490C540848BB
:102790000088401C0649088008460088C72801DDDB
:1027A0000020088010BD0000001001400000024021
:1027B000380000205C0000201CB501210220FEF73B
:1027C000C3FA4FF48070009001208DF804000020BF
:1027D0008DF8060003208DF8050001208DF8070014
:1027E00069460448FEF712F84FF480710148FEF77D
:1027F00089F81CBD0004024001460122F84B1A6012
:10280000002015E001FA00F202F080021AB1012264
:10281000F44B1A6002E00022F24B1A600022F14BE6
:10282000343B1A600122F04BC3F88422421CD0B220
:102830000828E7DB704701460022E94B1A600020B8
:1028400015E001FA00F202F080021AB10122E54B14
:102850001A6002E00022E34B1A600022E14B343B95
:102860001A600122E04BC3F88422421CD0B208282F
:10287000E7DB704730B5002418E004F1B001C8B2BE
:10288000FFF7D9FF0020FFF7D6FF1020FFF7D3FF97
:10289000002507E0D54901EBC501085DFFF7ACFF56
:1028A000681CC5B2802DF5DB601CC4B2082CE4DBCB
:1028B00030BD10B5044600BF0221CD48FEF7A8FD8B
:1028C0000028F9D02146CA48FEF759FD0220FFF73B
:1028D00065FE10BD30B504460D4605F1B001C8B225
:1028E000FFF7A9FF102141EA1410FFF7A4FF04F03D
:1028F0000F0141F00100FFF79EFF30BD07E040F2FD
:10290000375100BF0A00A1F10101FBD1401E002890
:10291000F5D1704770B506462020FFF78CFF0020E8
:10292000FFF789FF2120FFF786FF0020FFF783FFD5
:102930007F20FFF780FF2220FFF77DFF0020FFF7B9
:102940007AFF0720FFF777FF0120FFF7D7FF00246A
:102950000AE0002504E03046FFF74EFF681CC5B2D0
:10296000802DF8DB601CC4B2082CF2DB70BD30B5E2
:10297000002418E004F1B001C8B2FFF75CFF0120A9
:10298000FFF759FF1020FFF756FF002504E0002055
:10299000FFF732FF681CC5B2802DF8DBC820FFF7B7
:1029A000ADFF601CC4B2082CE4DB30BD1CB50121B6
:1029B0000620FEF7C9F901208DF8040000208DF8EB
:1029C000060003208DF8050001208DF8070044F271
:1029D0000A00009069468748FDF718FF4FF4007021
:1029E000009069468448FDF711FF01207D49086089
:1029F0007D49C1F884027A49086000207A49C1F80B
:102A00008C023220FFF77AFF012076492C390860CA
:102A1000AE20FFF710FFD520FFF70DFF5020FFF786
:102A20000AFFA820FFF707FF3F20FFF704FFD3208E
:102A3000FFF701FF0020FFF7FEFE4020FFF7FBFE3F
:102A40008D20FFF7F8FE1420FFF7F5FE2020FFF79A
:102A5000F2FE0220FFF7EFFEA120FFF7ECFEC820F8
:102A6000FFF7E9FEDA20FFF7E6FE1220FFF7E3FEAC
:102A70008120FFF7E0FEEF20FFF7DDFED920FFF712
:102A8000DAFEF120FFF7D7FEDB20FFF7D4FE30207F
:102A9000FFF7D1FEA420FFF7CEFEA620FFF7CBFE66
:102AA000AF20FFF7C8FE0020FFF734FF1CBD2DE963
:102AB000F0430446884615464FF0000900260027DB
:102AC00020E0E85D203800F0FF097E2C04DD0024C2
:102AD00008F1010000F0FF0841462046FFF7FAFE2A
:102AE000002609E009EB4901444A02EB4101885DF7
:102AF000FFF782FE701CC6B2062EF3DBA01DC4B227
:102B0000781CC7B2E85D0028DBD1BDE8F0832DE971
:102B1000F04306460F46904600250024A14631E0CA
:102B200018F809002038C5B2782E02DD0026781C7E
:102B3000C7B239463046FFF7CDFE002407E004EB6C
:102B400005112F4A505CFFF757FE601CC4B2082CD9
:102B5000F5DB781CC1B23046FFF7BCFE002408E06C
:102B600004EB05110831264A505CFFF745FE601C56
:102B7000C4B2082CF4DB06F10800C6B209F101006A
:102B800000F0FF0918F809000028C9D1BDE8F0835A
:102B90002DE9F04180460E46174600247D0131465E
:102BA0004046FFF797FE00BF06E01649485DFFF775
:102BB00023FE6D1C601CC4B2102CF6DB701CC1B26D
:102BC0004046FFF787FE002406E00E49485DFFF708
:102BD00013FE6D1C601CC4B2102CF6DBBDE8F08146
:102BE000A4824042B8024142000041422401002038
:102BF000003001400008024000040240223B00086F
:102C00004A3D0008023600082DE9F04180460E4694
:102C100017460024FD0131464046FFF75BFE00BF2A
:102C200006E0F949485DFFF7E7FD6D1C601CC4B282
:102C3000202CF6DB701CC1B24046FFF74BFE00248F
:102C400006E0F149485DFFF7D7FD6D1C601CC4B27A
:102C5000202CF6DBB01CC1B24046FFF73BFE00243F
:102C600006E0E949485DFFF7C7FD6D1C601CC4B272
:102C7000202CF6DBF01CC1B24046FFF72BFE0024EF
:102C800006E0E149485DFFF7B7FD6D1C601CC4B26A
:102C9000202CF6DBBDE8F081F0B5144600267F2835
:102CA00001DC3F2900DDF0BD0B46CF1701EB577764
:102CB000C7F3C702CF1701EB5777FF10A1EBC70788
:102CC000FDB20123AB40DEB24CB1D04B03EBC003ED
:102CD0009B5C3343CD4F07EBC007BB5408E0CB4BA5
:102CE00003EBC0039B5CB343C84F07EBC007BB5467
:102CF00000BFD8E72DE9F04F80460F4615461C4629
:102D0000BB46A5F12000C5B200264AE00C2C07D135
:102D100005EB4500BE4901EB800010F8069010E07D
:102D2000102C05D1BB4800EB051010F8069008E008
:102D3000182C06D105EBC500B74901EB800010F84F
:102D400006904FF0000A26E009F0800028B13946CD
:102D50004046099AFFF7A0FF09E0099808B9012049
:102D600000E00020024639464046FFF795FF4FEA53
:102D700049604FEA1069781CC7B2A7EB0B00A0426C
:102D800005D15F4608F1010000F0FF0806E00AF1F6
:102D9000010000F0FF0ABAF1080FD5DB00BF701C7C
:102DA000C6B2A642B2DBBDE8F08F30B50446A4F14E
:102DB0002000C4B2002509E004EB4401974A02EB6D
:102DC0004101485DFFF718FD681CC5B2062DF3DB15
:102DD00030BDF0B505460E46144631462846FFF78D
:102DE00079FD642094FBF0F03030C7B23846FFF72D
:102DF000DCFF642094FBF0F100FB11400A2190FB02
:102E0000F1F03030C7B23846FFF7CFFF0A2094FB0D
:102E1000F0F100FB11403030C7B23846FFF7C5FF74
:102E2000F0BDF0B505460E46144631462846FFF77C
:102E300051FD642094FBF0F03030C7B23846FFF704
:102E4000B4FF642094FBF0F100FB11400A2190FBD9
:102E5000F1F03030C7B23846FFF7A7FF0A2094FBE5
:102E6000F0F100FB11403030C7B23846FFF79DFF4C
:102E7000F0BDF0B505460E46144631462846FFF72C
:102E800029FD4FF47A7094FBF0F03030C7B2384629
:102E9000FFF78BFF4FF47A7094FBF0F100FB1140C9
:102EA000642190FBF1F03030C7B23846FFF77DFF68
:102EB000642094FBF0F100FB11400A2190FBF1F03B
:102EC0003030C7B23846FFF770FF0A2094FBF0F1AC
:102ED00000FB11403030C7B23846FFF766FFF0BD47
:102EE000F0B505460E46144631462846FFF7F2FC7B
:102EF0004B4894FBF0F03030C7B23846FFF755FF2F
:102F0000474894FBF0F100FB1140464990FBF1F07B
:102F10003030C7B23846FFF748FF424894FBF0F123
:102F200000FB114042F2107190FBF1F03030C7B25B
:102F30003846FFF73AFF42F2107094FBF0F100FBC5
:102F400011404FF47A7190FBF1F03030C7B238463F
:102F5000FFF72BFF4FF47A7094FBF0F100FB114068
:102F6000642190FBF1F03030C7B23846FFF71DFF07
:102F7000642094FBF0F100FB11400A2190FBF1F07A
:102F80003030C7B23846FFF710FF0A2094FBF0F14B
:102F900000FB11403030C7B23846FFF706FFF0BDE6
:102FA000F0B505460E46144631462846FFF792FC1A
:102FB0000A2094FBF0F03030C7B23846FFF7F5FE38
:102FC0000A2094FBF0F100FB11403030C7B23846C4
:102FD000FFF7EBFEF0BD70B505460E4614463146D0
:102FE0002846FFF777FC04F13001C8B2FFF7DDFE99
:102FF00070BD70B50026002523E029462046FFF766
:1030000069FC002419E00000223700082401002098
:103010003A430008AE4700089E4D0008223B0008D6
:1030200040420F00A08601003146721C96B2C14A90
:10303000505CFFF7E1FB601CC4B2802CF4DB681C21
:10304000C5B2082DD9DB70BD2DE9F04381460F468E
:1030500090460024002601256EE00024012514E09E
:10306000B548005D18F8061088420CD1B249601CC2
:10307000095C701C18F80000814204D104EB840044
:1030800000EBC40505E0A01CC4B2AB48005D7F287E
:10309000E6DC00BFB9F1760F03DD4FF00009781CC4
:1030A000C7B239464846FFF715FC012D21D03946F5
:1030B0004846FFF70FFC002407E0A049485DFFF7F2
:1030C0009BFB681C85B2601CC4B20D2CF5DB781C20
:1030D000C1B24846FFF7FEFB002407E09749485D70
:1030E000FFF78AFB681C85B2601CC4B20D2CF5DBAF
:1030F0001CE0701CC6B239464846FFF7EBFB0024C3
:1031000004E00020FFF778FB601CC4B2102CF8DB51
:10311000781CC1B24846FFF7DDFB002404E0002024
:10312000FFF76AFB601CC4B2102CF8DB09F10E003B
:1031300000F0FF09B01CC6B218F8060000288CD1B8
:10314000BDE8F0832DE9F04381460F469046002408
:10315000002501266BE00024012611E07848005D7F
:1031600018F80510884209D17549601C095C681C73
:1031700018F80000814201D1260105E0A01CC4B26C
:103180006F48005D7F28E9DC00BFB9F1760F03DDF1
:103190004FF00009781CC7B239464846FFF79AFB42
:1031A000012E21D039464846FFF794FB002407E062
:1031B0006449885DFFF720FB701C86B2601CC4B2B6
:1031C000102CF5DB781CC1B24846FFF783FB0024C6
:1031D00007E05C49885DFFF70FFB701C86B2601C3E
:1031E000C4B2102CF5DB1CE0681CC5B23946484659
:1031F000FFF770FB002404E00020FFF7FDFA601CDD
:10320000C4B2102CF8DB781CC1B24846FFF762FB51
:10321000002404E00020FFF7EFFA601CC4B2102C79
:10322000F8DB09F10E0000F0FF09A81CC5B218F880
:10323000050000288FD1BDE8F0832DE9F0438146D9
:103240000F4690460024002601256DE0002401254C
:1032500013E03D48005D18F8061088420BD13A494A
:10326000601C095C701C18F80000814203D104EB5B
:103270004400850005E0A01CC4B23348005D7F28EF
:10328000E7DC00BFB9F1760F03DD4FF00009781CD1
:10329000C7B239464846FFF71DFB012D21D03946FC
:1032A0004846FFF717FB002407E02849485DFFF771
:1032B000A3FA681C85B2601CC4B20C2CF5DB781C28
:1032C000C1B24846FFF706FB002407E01F49485DEE
:1032D000FFF792FA681C85B2601CC4B20C2CF5DBB7
:1032E0001CE0701CC6B239464846FFF7F3FA0024CA
:1032F00004E00020FFF780FA601CC4B2102CF8DB59
:10330000781CC1B24846FFF7E5FA002404E000202B
:10331000FFF772FA601CC4B2102CF8DB09F10E0042
:1033200000F0FF09B01CC6B218F8060000288DD1C5
:10333000BDE8F08353620008FA5E00081D5F0008D4
:10334000E9600008F6600008B6610008C361000883
:103350001CB501210720FDF7F7FC4FF4F850009051
:1033600001208DF8040000208DF8060003208DF860
:10337000050001208DF8070069467D48FDF746FAF3
:103380004FF47070009069467A48FDF73FFA4FF4A9
:103390004040009000208DF8040003208DF80500C7
:1033A00001208DF8070069467348FDF72FFAFF20CA
:1033B000009000208DF8040003208DF80500012006
:1033C0008DF8070069466A48FDF720FA43F6034086
:1033D000009069466848FDF719FA30200090694668
:1033E0006448FDF713FA1CBD10B50020634908605E
:1033F0000120FFF7D3F801206149C1F8A002FFF7CF
:10340000CDF800205D4908600120FFF7C7F810BD26
:1034100010B501205B4908603220FFF707F9002052
:103420005949C1F8A402574910310860091F0860C2
:10343000091F0860FFF7D8FF01205149C1F8A40215
:1034400010BD10B501204D49083908604C49C1F83C
:103450009C02FFF7A3F801204849091D0860FFF707
:103460009DF800204649C1F8A4020120FFF796F814
:1034700001204249091D086010BD2DE9F0410027D7
:1034800000203E490839086000BF5FE000203B494A
:10349000091F08603A49C1F89C023C4921F817000D
:1034A0000120FFF77BF83248FDF71BFA044632484B
:1034B000FDF717FA05462F48FDF713FA0646E00315
:1034C00004F0020100EB413004F0040100EBC120E4
:1034D00004F0080100EB412004F0100100EBC110E2
:1034E00004F0200100EB411004F0400100EBC100AA
:1034F00004F0800100EB410006F0100100EBC10078
:1035000006F0200100EB410005F0010100EB411045
:1035100005F0020100EBC10005F4806100EBE11051
:1035200005F4006100EB612005F4805100EBE1201F
:10353000C5F340310844154921F8170001200F490F
:10354000091F08600E49C1F89C027F1C082F9DDBF3
:1035500001200A49091D0860FFF746FF01200849BC
:10356000C1F8A402054908390860BDE8F0810000EF
:10357000000002400008024000040240A002414254
:1035800000004142A00240420000404224050020C9
:1035900070477047704770477047754600F028F8CD
:1035A000AE4605006946534620F00700854618B030
:1035B00020B5FDF723F8BDE820404FF000064FF09E
:1035C00000074FF000084FF0000B21F00701AC4658
:1035D000ACE8C009ACE8C009ACE8C009ACE8C00977
:1035E0008D4670470446AFF300802046FCF715FE79
:1035F00000487047740500204FF04070E1EE100A5B
:1036000070470002F29292FE929292FE9292F20221
:103610000000000282929A566322324A4642820297
:1036200000000010101010101090D070301000002A
:103630000000010101011111111F0101010101002F
:103640000000002020202020E0202020202020003A
:1036500000001010101010101F101010101010107B
:1036600000005050F04848007050505050507000CA
:1036700000000C033F0102151515151F1515151136
:10368000000000E00000F000D05050F05050D0108A
:1036900000000027301807000F00003F08080F0047
:1036A00000004040F0404040F040404040F040408A
:1036B000000000001F101010171212121217101025
:1036C00000000000F050505050F0505050F00000FA
:1036D00000000014150B07010101011F050504007E
:1036E000000080909020808040402010204080800A
:1036F000000000101F1008001F12121211110C0000
:1037000000004040F84040909090909090909080C1
:10371000000008080F04141814121110121C1810BD
:103720000000000000000000000000000000000099
:1037300000E0E000000000000000000000000000C9
:1037400000000000FFFFC3C3C3C3C3C3C3C3C3C3DD
:10375000C3FFFFC3C3C3C3C3C3C3C3C3C3FFFF000C
:1037600000000000FFFF303030303030303030307B
:1037700030FFFF303030303030303030303F3F00BD
:1037800000C0000000000000000000000000000079
:1037900000070F18181818181818181818181818DB
:1037A0000E0F0000000080808080808080808080FC
:1037B0008080808080808080808080808080808009
:1037C00000000000000001010101010101010101EF
:1037D0000101C1E161313119190D0D070703030121
:1037E00000000003030303030303030303030303B2
:1037F0000303FFFF030303030303030303030303A1
:10380000030300000000000000000018181818183A
:1038100018180F0F0000000000000000000000005A
:103820000000000000808080808080808080808018
:103830008080808080808080808080808080808088
:1038400080000000000101010101010101010101ED
:103850000101FFFF0101010101010101010101015C
:103860000100000000000000000000000000000057
:103870000000FFFF0000000000000000000000004A
:103880000000000C0C0C0C0C0C0C0C0C0C0C0C0C9C
:103890000C0C0F0F0C0C0C0C0C0C0C0C0C0C0C0C62
:1038A0000C0C0080808080808080C0C0C0C0800000
:1038B0000080808080808080808080808080808088
:1038C00080006060616161E1FFFF606060606000D6
:1038D000007F7F3131313131313131313131317F1F
:1038E0007F0080E070381E07FFFF02070E1C0803F0
:1038F0006363636363636363FFFF63636363636360
:1039000063630001000000001F1F000000000C0C9A
:103910000C0C0C0C0C0C0C0C0F0F0C0C0C0C0C0CE1
:103920000C0C0000000000000000C0C0000000807F
:103930008080808080808080808080808080808087
:1039400080800000FFFF00000000FFFF000000017A
:10395000F1F13131313131FFFF313131313131F17B
:10396000F10100007F7F000000E0FF3F0000000049
:10397000FFFF0000000000FFFF000000000000FF4C
:10398000FF00000000081C0E0703010000000000FB
:10399000030300000000001F1F00030303030303D1
:1039A0000100000000000080800000000000000016
:1039B000C0C000000000000000000000C0C0000007
:1039C00000000030303030FFFF30303030303030E9
:1039D000FFFF30303030303030303030FFFF3030AB
:1039E00030300000000000FFFF0000000000000079
:1039F0007F7F303030303030303030307F7F0000EB
:103A0000000000000000000F0F0C0C0C0C0C0C0C44
:103A10000C0C0C0C0C0C0C0C0C0C0C0C0C0C0C0CE6
:103A20000C0C00000000808080808080808080807E
:103A30008080808080808080808080808080808086
:103A4000000000000000FFFF9999999999999999B0
:103A50009999FFFF99999999999999999999FFFF3E
:103A6000000000206060333331111999F9FD05071A
:103A70000303010103030705FDF91919113133335C
:103A8000606000000008181C0C0E06070300000010
:103A900000000000000000001F1F000000000000E8
:103AA0000000000000000000000000808080808096
:103AB0008080808080000000000000000000000086
:103AC00000000000E0F8FC1E0E07030301010101E5
:103AD000010101010303070E1EFCF8E000000000D5
:103AE00000000000071F3F7C70E0C0800000000065
:103AF0000000000080C0E0707C3F1F070000000055
:103B0000000000000303030303030303030000009A
:103B1000000000030303030303030303000000008A
:103B200000000000000000000000002F0000000066
:103B30000700070000147F147F1400242A7F2A1234
:103B40000062640813230036495522500000050323
:103B5000000000001C224100000041221C00001453
:103B6000083E08140008083E0808000000A0600095
:103B70000008080808080000606000000020100825
:103B80000402003E5149453E0000427F4000004291
:103B900061514946002141454B31001814127F10F4
:103BA000002745454539003C4A4949300001710923
:103BB000050300364949493600064949291E0000D7
:103BC000363600000000563600000008142241007E
:103BD00000141414141400004122140800020151AE
:103BE000090600324959513E007C1211127C007FB7
:103BF00049494936003E41414122007F4141221C52
:103C0000007F49494941007F09090901003E4149B6
:103C1000497A007F0808087F0000417F41000020AA
:103C200040413F01007F08142241007F4040404056
:103C3000007F020C027F007F0408107F003E41419C
:103C4000413E007F09090906003E4151215E007F87
:103C5000091929460046494949310001017F0101FE
:103C6000003F4040403F001F2040201F003F4038A1
:103C7000403F0063140814630007087008070061E0
:103C80005149454300007F41410000552A552A55BE
:103C9000000041417F000004020102040040404056
:103CA0004040000001020400002054545478007F7A
:103CB0004844443800384444442000384444487F51
:103CC00000385454541800087E0901020018A4A4B6
:103CD000A47C007F080404780000447D400000407C
:103CE00080847D00007F102844000000417F400058
:103CF000007C04180478007C0804047800384444EC
:103D0000443800FC242424180018242418FC007CC7
:103D10000804040800485454542000043F44402040
:103D2000003C4040207C001C2040201C003C4030D7
:103D3000403C004428102844001CA0A0A07C004463
:103D400064544C44141414141414000000000000B3
:103D500000000000000000000000000000F800006B
:103D60000000000000333000000000100C06100CB2
:103D70000600000000000000000040C07840C0784D
:103D80004000043F04043F040400007088FC083035
:103D90000000001820FF211E0000F008F000E018CD
:103DA000000000211C031E211E0000F00888700086
:103DB00000001E2123241927211010160E000000D8
:103DC00000000000000000000000000000E01804F7
:103DD0000200000000071820400000020418E00064
:103DE00000000040201807000000404080F08040A4
:103DF00040000202010F01020200000000F000007A
:103E000000000101011F010101000000000000008D
:103E1000000080B070000000000000000000000002
:103E2000000000010101010101010000000000008B
:103E30000000003030000000000000000000806042
:103E40001804006018060100000000E010080810C7
:103E5000E000000F102020100F00001010F80000EC
:103E600000000020203F2020000000700808088883
:103E70007000003028242221300000300888884853
:103E800030000018202020110E000000C02010F883
:103E9000000000070424243F240000F80888880854
:103EA00008000019212020110E0000E01088881859
:103EB0000000000F112020110E0000380808C8383B
:103EC00008000000003F000000000070880808881B
:103ED0007000001C222121221C0000E010080810A4
:103EE000E0000000312222110F00000000C0C000DD
:103EF00000000000003030000000000000800000E2
:103F000000000000806000000000000080402010E1
:103F100008000001020408102000404040404040DA
:103F2000400004040404040404000008102040803D
:103F30000000002010080402010000704808080872
:103F4000F0000000003036010000C030C828E81042
:103F5000E0000718272423140B000000C038E000FD
:103F60000000203C23020227382008F88888887047
:103F70000000203F202020110E00C0300808080853
:103F80003800071820202010080008F8080808103A
:103F9000E000203F202020100F0008F88888E80863
:103FA0001000203F20202320180008F88888E80807
:103FB0001000203F200003000000C030080808382F
:103FC000000007182020221E020008F80800000840
:103FD000F808203F210101213F20000808F80808C7
:103FE00000000020203F2020000000000808F80802
:103FF0000800C08080807F00000008F888C0281872
:104000000800203F20012638200008F808000000A2
:104010000000203F20202020300008F8F800F8F8A9
:104020000800203F003F003F200008F830C0000893
:10403000F808203F200007183F00E010080808108B
:10404000E0000F10202020100F0008F808080808D2
:10405000F000203F210101010000E01008080810D5
:10406000E0000F18242438504F0008F8888888880A
:104070007000203F2000030C3020007088080808E2
:1040800038000038202121221C00180808F80808F0
:1040900018000000203F2000000008F80800000879
:1040A000F808001F202020201F000878880000C882
:1040B0003808000007380E010000F80800F8000872
:1040C000F800033C0700073C03000818688080687C
:1040D000180820302C03032C30200838C800C838BA
:1040E00008000000203F2000000010080808C83821
:1040F00008002038262120201800000000FE0202BF
:1041000002000000007F40404000000C30C0000072
:104110000000000000010638C00000020202FE009C
:104120000000004040407F00000000000402020246
:10413000040000000000000000000000000000007B
:104140000000808080808080808000020204000067
:10415000000000000000000000000000808080805F
:1041600000000019242222223F2008F8008080004D
:104170000000003F112020110E0000000080808010
:104180000000000E11202020110000000080808817
:10419000F800000E112020103F2000008080808059
:1041A0000000001F222222221300008080F0888855
:1041B00088180020203F20200000000080808080A0
:1041C0008000006B94949493600008F800808080D5
:1041D0000000203F210000203F2000809898000030
:1041E00000000020203F2020000000000080989860
:1041F000000000C08080807F000008F80000808000
:104200008000203F24022D302000000808F8000024
:1042100000000020203F20200000808080808080DF
:104220008000203F20003F20003F80800080808071
:104230000000203F210000203F200000808080807F
:104240000000001F202020201F00808000808000B0
:10425000000080FFA12020110E000000008080805F
:104260008000000E112020A0FF80808080008080D0
:10427000800020203F2120000100000080808080FD
:1042800080000033242424241900008080E08080F2
:1042900000000000001F202000008080000000803F
:1042A0008000001F202020103F20808080000080A0
:1042B000808000010E3008060100808000800080B0
:1042C00080800F300C030C300F0000808000808055
:1042D00080000020312E0E31200080808000008080
:1042E000808080818E701806010000808080808030
:1042F00080000021302C2221300000000000807C52
:10430000020200000000003F404000000000FF00EB
:10431000000000000000FF0000000002027C80009E
:1043200000000040403F00000000000601010202C2
:104330000404000000000000000000000000000075
:10434000000000000000000000003F4000000000EE
:104350000000000030004000300040000000090074
:104360000BC03D000BC03D00090018C024407FE099
:10437000224031800000180024C01B000D80324014
:10438000018003801C4027401C8007400040100033
:1043900060000000000000000000000000000000BD
:1043A0001F80204040200000402020401F8000004F
:1043B0000000090006001F8006000900000004003C
:1043C00004003F80040004000000001000600000B2
:1043D00000000000000004000400040004000400C9
:1043E000000000000040000000000000000000206D
:1043F00001C006003800400000001F80204020401F
:1044000020401F800000000010403FC0004000001E
:10441000000018C0214022402440184000001080B5
:104420002040244024401B80000002000D001100A9
:104430003FC0014000003C802440244024402380B1
:1044400000001F80244024403440038000003000DE
:10445000200027C03800200000001B80244024409A
:1044600024401B8000001C0022C0224022401F80EC
:1044700000000000000008400000000000000000F4
:1044800000000460000000000000000004000A00BA
:1044900011002080404009000900090009000900BE
:1044A000000000004040208011000A0004001800B5
:1044B000200023402400180000001F8020402740D7
:1044C00029401F400000004007C039000F0001C014
:1044D000004020403FC0244024401B8000001F803B
:1044E0002040204020403080000020403FC020403D
:1044F00020401F80000020403FC024402E4030C09C
:10450000000020403FC024402E00300000000F007B
:104510001080204022403380020020403FC0040031
:1045200004003FC02040204020403FC020402040A9
:1045300000000060202020203FC0200020002040FC
:104540003FC024400B0030C0204020403FC02040EE
:104550000040004000C03FC03C0003C03C003FC0E2
:10456000000020403FC00C4023003FC020001F80BF
:104570002040204020401F80000020403FC02440B9
:104580002400180000001F802140214020E01FA0CF
:10459000000020403FC02440260019C0004018C041
:1045A00024402440224031800000300020403FC0A1
:1045B00020403000000020003F80004000403F804D
:1045C000200020003E0001C0070038002000380015
:1045D00007C03C0007C038000000204039C006007A
:1045E00039C0204000002000384007C0384020007B
:1045F0000000304021C02640384020C000000000AC
:1046000000007FE0402040200000000070000C000F
:104610000380004000000000402040207FE00000B8
:1046200000000000200040002000000000000010FA
:1046300000100010001000100010000000004000EA
:10464000000000000000000002800540054003C09B
:10465000004020003FC004400440038000000000F0
:104660000380044004400640000000000380044032
:1046700024403FC000400000038005400540034047
:104680000000000004401FC024402440200000001F
:1046900002E0055005500650042020403FC0044071
:1046A000040003C000400000044027C00040000098
:1046B000000000100010041027E00000000020405F
:1046C0003FC00140070004C00440204020403FC0DC
:1046D00000400040000007C0040007C0040003C001
:1046E0000000044007C00440040003C00040000074
:1046F00003800440044003800000041007F00450CD
:10470000044003800000000003800440045007F0D0
:104710000010044007C00240040004000000000034
:1047200006400540054004C00000000004001F8052
:10473000044000400000040007800040044007C01F
:1047400000400400070004C00180060004000600C9
:1047500001C0070001C006000000044006C00100BF
:1047600006C0044000000410071004E001800600A9
:1047700004000000044005C00640044000000000A2
:10478000000004007BE0402000000000000000006A
:10479000FFF000000000000040207BE0040000006B
:1047A0000000400080004000200020004000000089
:1047B00000000000000000000000000000000000F9
:1047C000000000001FCC000C0000000000000000F2
:1047D0000800300060000800300060000000022087
:1047E00003FC1E20022003FC1E200220000000000B
:1047F0000E1811043FFF10840C78000000000F0019
:1048000010840F3800C00778188400780000007802
:104810000F8410C411240E9800E4008400080800DE
:1048200068007000000000000000000000000000B0
:104830000000000007E018182004400200000000FB
:1048400040022004181807E00000000000000240A9
:10485000024001800FF00180024002400000008011
:10486000008000800FF800800080008000000001C0
:10487000000D000E0000000000000000000000001D
:1048800000800080008000800080008000800000A8
:10489000000C000C00000000000000000000000000
:1048A00000060018006001800600180020000000CB
:1048B00007F0080810041004080807F000000000C2
:1048C000080408041FFC00040004000000000000AD
:1048D0000E0C10141024104411840E0C0000000063
:1048E0000C1810041104110412880C700000000050
:1048F00000E00320042408241FFC00240000000022
:104900001F9810841104110410881070000000001A
:1049100007F00888110411041888007000000000D6
:104920001C00100010FC13001C0010000000000010
:104930000E3811441084108411440E380000000019
:104940000700088C10441044088807F0000000009D
:1049500000000000030C030C000000000000000039
:10496000000000010106000000000000000000003F
:1049700000800140022004100808100400000220FA
:10498000022002200220022002200220000000005B
:1049900010040808041002200140008000000000FC
:1049A0000E001200100C106C10800F00000003E0CD
:1049B0000C1813E4142417C4082807D000000004BE
:1049C000003C03C41C40074000E4001C0004100429
:1049D0001FFC1104110411040E880070000003E094
:1049E0000C1810041004100410081C10000010040F
:1049F0001FFC100410041004080807F00000100445
:104A00001FFC1104110417C410040818000010043E
:104A10001FFC1104110017C010000800000003E083
:104A20000C181004100410441C78004000001004FE
:104A30001FFC10840080008010841FFC1004000004
:104A4000100410041FFC10041004000000000003F8
:104A50000001100110011FFE1000100000001004E2
:104A60001FFC110403801464181C100400001004BF
:104A70001FFC1004000400040004000C00001004DB
:104A80001FFC1F0000FC1F001FFC1004000010048E
:104A90001FFC0C04030000E010181FFC100007F0BE
:104AA0000808100410041004080807F0000010049F
:104AB0001FFC10841080108010800F00000007F091
:104AC000081810241024101C080A07F20000100413
:104AD0001FFC1104110011C011300E0C0004000065
:104AE0000E1C11041084108410441C38000018009F
:104AF000100010041FFC100410001800000010002B
:104B00001FF810040004000410041FF81000100027
:104B10001E0011E0001C007013801C0010001FC05C
:104B2000103C00E01F0000E0103C1FC0000010041B
:104B3000180C163401C001C01634180C10041000F3
:104B40001C00130400FC13041C00100000000804E7
:104B5000101C1064108413041C04101800000000C2
:104B6000000000007FFE4002400240020000000002
:104B700030000C0003800060001C000300000000F7
:104B80004002400240027FFE0000000000000000E2
:104B90000000200040004000400020000000000114
:104BA00000010001000100010001000100010000FE
:104BB0004000400020000000000000000000000055
:104BC0000098012401440144014400FC0004100049
:104BD0001FFC008801040104008800700000000030
:104BE0000070008801040104010400880000000036
:104BF000007000880104010411081FFC000400007B
:104C000000F8014401440144014400C800000000D0
:104C1000010401040FFC110411041100180000002C
:104C200000D601290129012901C90106000010044B
:104C30001FFC008401000100010400FC00040000CE
:104C40000104190419FC0004000400000000000025
:104C5000000300010101190119FE00000000100409
:104C60001FFC0024004001B4010C010400000000FE
:104C7000100410041FFC00040004000000000104E4
:104C800001FC0104010001FC0104010000FC01041D
:104C900001FC008401000100010400FC000400008C
:104CA00000F8010401040104010400F800000101FE
:104CB00001FF00850104010400880070000000006D
:104CC0000070008801040104010501FF00010104D6
:104CD000010401FC008401040100018000000000C7
:104CE00000CC0124012401240124019800000000CB
:104CF0000100010007F801040104000000000100A8
:104D000001F8000400040004010801FC0004010093
:104D100001800170000C001001600180010001F0B1
:104D2000010C003001C00030010C01F00100000056
:104D30000104018C00740170018C01040000010168
:104D400001810171000E0018016001800100000066
:104D50000184010C013401440184010C00000000B5
:104D600000000000000001003EFC40024002000084
:104D7000000000000000FFFF000000000000000035
:104D8000400240023EFC0100000000000000000064
:104D900060008000800040004000200020000000F3
:104DA0000000000000000000000000000000000003
:104DB00000000000000000000000000000000000F3
:104DC00000000000000000000000000000000000E3
:104DD000000F80380FFE380F803800000000000000
:104DE00000000000000000000000000001000006BC
:104DF00000000C00003800003100000600000C002C
:104E00000038000030000000000000000000618059
:104E10000067F807F9800061800061800061800010
:104E200061800067F807F9800061800000000000E1
:104E30000000000001C0E003E0F00630080418089C
:104E40001FFFFE040E080787F00381E0000000004A
:104E5000000001F000060C00040408060C7001F9C3
:104E6000C0000E00003BE000EC18070808040C1816
:104E70000003E00000000001E00007F003F8180460
:104E80001C0804170807E1D003C0E00023B0003C71
:104E900008002008000010000000000000010000D1
:104EA0003100003200001C00000000000000000083
:104EB00000000000000000000000000000000000F2
:104EC00000000000000000000000000000007F0063
:104ED00001FFC00780F00C00181000042000020041
:104EE00000000000002000021000040C00180780E1
:104EF000F001FFC0007F0000000000000000000083
:104F000000000000000000000000420000660000F9
:104F10006600003C0000180003FFC0001800003CC1
:104F2000000066000066000042000000000008006B
:104F300000080000080000080000080001FFC00091
:104F40000800000800000800000800000800000039
:104F50000000000100003100003200001C000000D1
:104F60000000000000000000000000000000000041
:104F70000000000000000800000800000800000811
:104F800000000800000800000800000800000800F9
:104F900000080000000000000000000000003800D1
:104FA0000038000038000000000000000000000091
:104FB00000000000000000000000000000000006EB
:104FC00000001C000070000180000E00003800008E
:104FD000C0000700001C00003000000000000000BE
:104FE00000007F8001FFE0038070060018040008C5
:104FF00004000806001803807001FFE0007F8000B5
:10500000000000000000000001000801000801008D
:105010000803FFF807FFF800000800000800000878
:1050200000000000000000000001C03802C0580469
:105030000098040118040218040418061C1803F848
:105040001801E0F800000000000000000001C0E0CE
:1050500003C0F00400080408080408080618080340
:10506000F41801E7F00001E000000000000000007B
:1050700000000300000D0000110000610000810825
:1050800003010807FFF80FFFF800010800010800FE
:1050900000000000000000E007FCD0060808061031
:1050A00008061008061008061838060FF00607C094
:1050B000000000000000000000003F8001FFE0034E
:1050C0008430020818041008041008041008071897
:1050D00010030FF00007C0000000000000000000F7
:1050E00003C0000700000600000600F80607F806E7
:1050F000180006E0000700000600000000000000A5
:105100000001E1E003F7F006341004180804180861
:10511000040C08040C0806161803F3F001C1E000A3
:10512000000000000000F80003FC30030638040211
:10513000080402080402080404100308F001FFC078
:10514000007F0000000000000000000000000000E0
:105150000000000000007038007038007038000057
:10516000000000000000000000000000000000003F
:1051700000000000000000000000301A00301C0099
:10518000000000000000000000000000000000001F
:105190000000000000080000140000220000410090
:1051A0000080800100400200200400100800080078
:1051B000000000000000210000210000210000216B
:1051C000000021000021000021000021000021003A
:1051D000002100000000000000000000080008049A
:1051E00000100200200100400080800041000022E9
:1051F0000000140000080000000000000003C000D0
:1052000004C000040000080038080F3808083808F7
:1052100010000C300007E00003C000000000000098
:1052200000003F8000FFE0038070020F10067088CE
:1052300004C088048308047F8802C0900301200012
:10524000FE400000080000180001F8003E0801C2FE
:105250000007020007E20000FE00001FC80001F87E
:1052600000003800000804000807FFF807FFF804F2
:10527000080804080804080804080806180803F4C5
:105280001801E7F00001E0000000000000003F808E
:1052900001FFE00380700200180400080400080405
:1052A00000080400100600200780C0000000040071
:1052B0000807FFF807FFF8040008040008040008C6
:1052C00004001802001003807001FFE0007F8000DE
:1052D000000004000807FFF807FFF80408080408A6
:1052E00008040808040808043E080400080600181A
:1052F00001006000000004000807FFF807FFF80441
:105300000808040800040800040800043E00060021
:1053100000060000018000000000000000003F8047
:1053200001FFE0038070060018040008040208046E
:1053300002080203F00783F00002000002000400EC
:105340000807FFF807FFF804080800080000080035
:1053500000080000080004080807FFF807FFF80429
:105360000008000000000000040008040008040019
:105370000807FFF807FFF804000804000804000805
:105380000000000000000000000000060000070010
:10539000000104000104000104000307FFFE07FFF1
:1053A000FC04000004000004000004000807FFF8EB
:1053B00007FFF8040C08001800003E0004C7800531
:1053C00003C80600F80400380400180000080400B0
:1053D0000807FFF807FFF8040008000008000008AD
:1053E000000008000008000008000018000060002D
:1053F000000004000807FFF807800807FC00007F92
:10540000C00003F80007C000780007800807FFF815
:1054100007FFF804000804000807FFF80700080366
:10542000C00000E000003800001E0000070000017E
:10543000C00400F007FFF8040000000000007F80B7
:1054400001FFE0038070060018040008040008064D
:10545000001803003001FFE0007F8000000004001E
:105460000807FFF807FFF804040804040004040018
:10547000040400040400060C0003F80001F000001E
:105480000000000000007F8001FFE0038070060044
:10549000880400880400C806003C03003E01FFE6C3
:1054A000007F8400000004000807FFF807FFF804ED
:1054B0000808040800040C00040F00040BC00610C8
:1054C000F003F03801E00800000800000001E0F8F7
:1054D00003F030063010041808041808040C0804FF
:1054E0000C080206180207F00781E00000000180A6
:1054F0000006000004000004000004000807FFF894
:1055000007FFF80400080400000400000600000182
:10551000800004000007FFE007FFF004001800000F
:10552000080000080000080000080000080400103F
:1055300007FFE004000004000006000007E0000789
:10554000FE00041FE00001F80000380001E0043E06
:105550000007C00006000004000004000007E0008F
:1055600007FFC0041FF80007C007F80007FF80040A
:105570003FF80007C004F800070000040000000026
:105580000004000806001807C07805F1C8003E00B6
:10559000001F800463E80780F80600180400080074
:1055A000000004000006000007800007E008047CFB
:1055B00008001FF80007F800180804E008070000BA
:1055C0000600000400000000000100080600380486
:1055D00000F80403E8040F08047C0805F00807C07D
:1055E0000807001804006000000000000000000030
:1055F0000000000000000000003FFFFE200002202D
:105600000002200002200002200002000000000032
:105610000000000008000007000000C00000380083
:105620000006000001C000003000000E0000010074
:105630000000000000000000200002200002200006
:10564000022000022000023FFFFE000000000000D8
:105650000000000000000000000000000000000842
:10566000000010000030000020000030000010009A
:105670000008000000000000000000000100000120
:105680000000010000010000010000010000010015
:105690000001000001000001000001000001000005
:1056A00000000000000000200000200000100000AA
:1056B00010000000000000000000000000000000DA
:1056C00000000000000000F00019F8001B18002284
:1056D00008002608002408002410003FF8001FF8E6
:1056E00000000800001800000004000007FFF80F89
:1056F000FFF00018180010080020080020080030F3
:1057000018001FF0000FC00000000000000007C0DC
:10571000001FF000183000200800200800200800BA
:105720003C08001C100000600000000000000000A9
:10573000000007C0001FF0003818002008002008F3
:1057400000200804101007FFF80FFFF00000100001
:1057500000000000000000000007C0001FF0001261
:1057600030002218002208002208003208001E1013
:10577000000E2000000000000000200000200800B3
:10578000200801FFF803FFF8062008042008042081
:105790000807200003000000000000000000000EC9
:1057A000000E6E001FF30031B10020B10020B100E7
:1057B0003191001F13002E1E00200E00300000004B
:1057C0000004000807FFF80FFFF800100800200091
:1057D000002000002008003FF8001FF8000008002B
:1057E0000000000000000000002008002008002049
:1057F00008063FF8063FF80000080000080000080F
:105800000000000000000000000000000000030095
:105810000003002001002001002003063FFE063F98
:10582000FC00000000000000000000000004000870
:1058300007FFF80FFFF8000188000300002FC000E9
:1058400038F80020380020080000080000000000A0
:105850000000000004000804000804000807FFF826
:105860000FFFF8000008000008000008000000001A
:105870000000002008003FF8003FF800100800205A
:1058800000003FF8003FF8001008002000003FF83B
:10589000003FF8000008000000002008003FF8006A
:1058A0003FF8001008001000002000002008003F12
:1058B000F8001FF80000080000000000000007C00A
:1058C000000FF00018300030080020080020080009
:1058D0003008001830000FF00007C0000000000082
:1058E00000002001003FFF003FFF001011002009D1
:1058F000002008002008003038001FF0000FC00012
:1059000000000000000007C0001FF0003818002051
:1059100008002008002009001011001FFF003FFFB1
:1059200000000100000000200800200800200800FE
:105930003FF8003FF8000808001008002008002089
:1059400000003000003000000000000000000000F7
:10595000000C78001E1800330800230800210800FE
:1059600021880021980030F000386000000000001D
:105970000000200000200000200000FFF003FFF8DE
:10598000002008002008002008000030000000006F
:105990000000000000002000003FF0007FF8000041
:1059A00018000008000008002010003FF8007FF0F9
:1059B0000000100000000000000020000030000087
:1059C0003C00003F800023F00000780000700023BE
:1059D00080003C00003000002000002000003C005F
:1059E000003FE00023F80000E0002700003E000038
:1059F0003FE00021F80001E0003E00002000000030
:105A000000002008002008003838003E6800278089
:105A10000003C8002CF800383800201800200800C7
:105A20000000000000002000003003003C01003FA7
:105A3000830023EC000070002380003C0000200065
:105A400000200000000000000000000000380800F6
:105A500020380020F80023E8002F88003E08003896
:105A60000800201800007000000000000000000086
:105A70000000000000000000000008000014001FEB
:105A8000F7FC3000062000020000000000000000CB
:105A90000000000000000000000000000000000006
:105AA000FFFFFF00000000000000000000000000F9
:105AB00000000000000000002000023000061FF778
:105AC000FC001400000800000000000000000000BE
:105AD000000000000000000000180000600000400E
